:0200000407FCF7
:100000001C7EFC07A169FC07B569FC07CF69FC07EA
:10001000E969FC07E969FC07E969FC07E969FC078C
:10002000000000000000000000000000E969FC077B
:100030000000000000000000E969FC07E969FC0716
:10004000611FFC07395AFC071D27F0075123FC07E5
:10005000A122FC07E969FC07551FFC07E969FC07B9
:10006000E969FC07E969FC07D920FC07E320FC07E4
:10007000ED20FC07F720FC070121FC07E969FC07DC
:100080009523FC07E969FC07E969FC07E969FC07B6
:10009000E969FC07E969FC07E969FC07E969FC070C
:0200000407FCF7
:100510000348854601F006FD004800477549FC0781
:100520001C7EFC0770B50E4604460022032151F7DD
:1005300012FA054652F7DEFB6880284651F71CFA8E
:1005400052F7D8FB7188884200D3084601462046FE
:1005500051F7F9FA002070BD0246FF4B92009A58FD
:100560000120126900290ED0517F5E239B5C002B75
:100570000BD0052906D1517E090702D5917C0907C8
:1005800000D400207047917DEFE70229F9D00429BB
:10059000F7D00529F6D10020EDE7024630B59300EB
:1005A000ED4A0120D2581269137DD47E157F234075
:1005B000547D2C40012901D0022909D1957C527E1D
:1005C00015402A0704D41A462243D20700D100203E
:1005D000032901D0042904D1590702D4610700D4AA
:1005E000002030BDF8B514460D4610465BF795FC6B
:1005F000240A002830D0D949A2008B5801271E8B2D
:10060000BF023E431E83132826D0142824D0152869
:1006100011D088582D210A5C0123D10600290CDA5B
:100620000146A0318E7D002E07D08B753D212046DE
:1006300045F7E0FE10E00220F8BD110703D50021C8
:10064000A0308175F7E7A0308375204643F7CCFBD7
:100650002946204643F70BFC0020F8BDFFB581B0CA
:100660001546170A10465BF758FC002838D01328A7
:1006700036D0142834D0290A8C00B84E152815D04D
:10068000FF20294603305BF72FFD30592D21095CEF
:10069000C90603D5A030C07D00280ED03D026D1CD8
:1006A000A8B25BF73AFC19280CD00FE030590121B1
:1006B000A030C175022005B0F0BD3D21384645F798
:1006C00099FE0DE0A8B201215BF7F5FB305901223C
:1006D000018B5202914301833846029943F7C7FBCD
:1006E0000020E8E7F0B59D498700C9590026803110
:1006F0004A8C8B8C1B2A00D21B228C8B944200D2FA
:1007000022468A849A4200D001260B8CCD8C1B2B6A
:1007100000D21B23CC8B9C4200D22346CB84AB421D
:1007200000D001260B8ECD8D9C46FF2349339D4280
:1007300001D21C4600E02C460D8DA54200D3254673
:100740000D86654500D001264C8EA4468C8D9C42BA
:1007500000D21C464B8DA34200D21C464C866445F9
:1007600000D00126EB080B3B9BB29A4200D2134605
:100770008B86522379495843794BCA591C68803279
:100780000419D28C8034E285C9591A6880318018E6
:10079000498E803001863046F0BD10B50446714860
:1007A000008D8007800F012800D000206071002894
:1007B00007D057F71BFF01460622A01D5DF776FC08
:1007C00010BD06226849A01DF8E770B50546002453
:1007D00042F7D1F82855641C082CF9DB70BDF8B538
:1007E000022707700126044646700D4688795F4946
:1007F000C96988472A210855287900210007000F78
:10080000A07003005DF7A6FC07050709100D100B8B
:100810001000A1700AE0A67026E0032002E0A77095
:1008200004E00420A07001E001281DD0A888000A7F
:10083000801FC0B2A0721F2800D9A172284642F7BB
:100840004FF9811D2046A27A0B305DF72FFC284618
:1008500042F746F901460622201D5DF727FC28795C
:100860004006C00FE070F8BDA172F0E7F7B544682C
:100870008CB02546243503950546074624354CF7AC
:1008800043FA06464420405B5221484334490968F4
:100890004018C0304089694608840121384647F72E
:1008A00072F94CF7A6F809900E9800698088000A42
:1008B000C1002F480818298940182D495B315DF780
:1008C0007BFB01466868039D4718403528890690E0
:1008D0000090A0680099381A400140095DF76CFB50
:1008E0000A910098C019401A400140096946A06069
:1008F000098C4900C919891C49014909884204D257
:100900000699401840014009A06001460998081A5C
:10091000400118494009884215D900202B89A26856
:10092000401CD21852015209A260EA89521CEA8185
:10093000A368099A9A1A520152098A42EED801B262
:100940000D9847F7C1F9A1680998081A4201607D1E
:100950005209824221D80FE02C7EFD071879FD074D
:100960004C76FD074C7EFD07CF79FD07B47FFD0770
:1009700016020000FFFFFF032A898918490149096F
:10098000A1602A890A99511A814206D901210D983C
:1009900047F79AF9E889401CE8812989A0685DF742
:1009A0000BFBF1802889B080208A3081A888708173
:1009B0000020B081C807C00FB073A88852214843F7
:1009C0008E30308230464CF7AAF9039846632046B1
:1009D0000FB0F0BDFFB5002093B006460124FE49DC
:1009E00049680A7821460C2A0CD06A461173002205
:1009F0001192002E09D015990291169D1F2D54D9E0
:100A0000402052E000242246119413990291149D33
:100A1000F4E7029989184978012905D0172903D0EC
:100A2000182901D0192912D1631E04E003AFFF5C1D
:100A30008F4204D05B1E5BB2002BF7DA03E0002B81
:100A400001DB4A2003E003AB1955641CE4B20B0040
:100A50005DF780FB1D2610101010101010101026CE
:100A6000262626262626262626262626101010107E
:100A700010102600119B03E00BAFFF5C8F4204D0E7
:100A80005B1E5BB2002BF7DA03E0002B01DB4A2090
:100A900006E0119F0BABD9551199491CC9B21191B0
:100AA0000299895C521C89188AB2AA4201D2002894
:100AB000AFD0AA4200D04A20761CF6B2022E01D254
:100AC000002894D017B0F0BD10B50022134607E0FF
:100AD00084186478012C07D0845C521CA21892B24E
:100AE0008A42F5D3184610BD80188378FAE7F0B52E
:100AF0000646A9B01546002084006318DA789F786E
:100B000012025B783A4352BA1B041A430B5D072466
:100B10001B061A43231A9F0020AB401CDA510828F9
:100B2000EAD300218A0090190746C37880781B0217
:100B3000034378785BBA00040343B05C10AA000654
:100B40000343601A800013503846223043780078FF
:100B50001B0203433846203047785BBA3F040078D5
:100B60003B43000603430F27781A8000491C1350AB
:100B70000829D7D35CF72EF9014630465CF7A7FD6C
:100B800000282DD05CF726F9034620AA10A9684654
:100B90005DF7A8F900226846A11A8B009600C75C91
:100BA0007119CF70C75A3F0A8F70C7583F0C4F70EA
:100BB000C35820311B0EAB550F239B1A9B00C65CFC
:100BC000CE70C65A521C360A8E70C658360C4E70FD
:100BD000C3581B0E0B70082ADED3002029B0F0BDCD
:100BE0000120FBE7F7B500251746064641232A46B4
:100BF00029460A205AF7DCFF0446002E10D0012EA9
:100C000002D0022E0CD105E02022611C002041F709
:100C1000CBFE04E0621C3946019841F775FE207056
:100C200020465AF7DEFF2846FEBDF8B56B48009017
:100C300007680C46002F7BD005461C35287E00280F
:100C400076D0012802D0022872D102E02078002854
:100C500019D038896249002688423AD107204BF7DB
:100C60004BFC002835D042233E2200215D485AF734
:100C70009FFF082101702178002913D003214170C2
:100C80002178817043E055480226611C14302E768D
:100C9000202204465DF70AFA22465349304641F7BE
:100CA0003DFE45E0002146701F22531A1B194718CC
:100CB0005B78491CBB702029F7DB00213F22531AC7
:100CC00047181B1920375B78491CBB702029F6DBBD
:100CD0001DE043493889491C88421AD108204BF746
:100CE0000BFC002815D022233E2200213D485AF754
:100CF0005FFF09210170217800291BD0122141706A
:100D00000021FF224318491C9A702029FADB4DF775
:100D1000FFFE2E7640205BF7CEFB009841F702FFE6
:100D20005AF789FF00980068002801D041F7F1FDCB
:100D30000020F8BD002146701F22531A1B194718C6
:100D40005B78491CBB702029F7DBE0E770B50878B9
:100D500000250C46012809D01D2810D02B2812D0C0
:100D60004022194655F7E4FE284670BD5BF78DFA20
:100D70001948012504601D4857F76DFAF4E71C482F
:100D800041F730FDF0E71B4801680029ECD1012153
:100D90000160194841F72CFEE6E770B5104D174C7D
:100DA000223DAB422ED10F4809232A460021C01E06
:100DB0005AF7FEFE044608221149401C5DF776F9F9
:100DC00020790821084320710025257020464DF721
:100DD0009FFE284670BD00004C7EFD07287AFD0767
:100DE000252000000408000089E7F107030C00003B
:100DF000C3C3C3C35077FD07CC7DFD070DC3F00708
:100E00005CE5F107A047E5E7F1B584B00498FF4938
:100E100080000C5804980502A81D0290002C15D0E3
:100E20006068818804290CD34188861D0C380091A4
:100E300001903146049857F7E4FFF549884206D1FE
:100E400060680C385AF7F7FE0020606033E4F178F0
:100E5000B2780F02019928431743C88038464038BA
:100E60003F2819D803223946049854F751F8060050
:100E7000E6D0B07B0128E3D13420B07329460A3193
:100E80000423E448029A5AF793FEB1894180102165
:100E900001705AF7A6FED3E761683420087002217A
:100EA00000985AF777FD05463146009A5DF7FEF83F
:100EB00068782978000208436168C880E878A978D2
:100EC000000208436168062F08810BD0042F09D067
:100ED0006068052F10D00C385AF7ADFE28465AF737
:100EE000D4FDB1E760688188052913D3297981721F
:100EF0006168287988720DE0818805290AD32979EB
:100F0000817261682879887260688188062901D3B6
:100F10006979C17260685AF764FEDFE7FFB587B090
:100F20000E4609985AF7F9FF0999090A0391002812
:100F300076D08800B54905900D58B749B079096B4E
:100F40000A225043B478081841F7CAFD0190686836
:100F5000002808D0012C2DD00398FFF755FF6868B2
:100F6000002802D026E0022C5AD1B088012702289E
:100F700005D30198417800780C02044302E051F750
:100F8000B9FE044651F7B6FEA04201D20224002762
:100F900020464C3083B29E49A048099A5AF708FE71
:100FA000241D68604480002F01D0002000E0342020
:100FB0006968087068680028BAD0811D0091B288FD
:100FC0000199841C071D01928088238882189A4207
:100FD00009D8009A8018019A5DF768F83988019855
:100FE0000818388009E01A1A009BC0185DF75EF8EF
:100FF00020883880696834200870388804280FD326
:10100000009841780278080210432188001D884228
:1010100007D280B220803988814207D9388002E027
:1010200068E0884202D969683420087038882188CD
:1010300088425FD1686800990C380190039857F78F
:10104000E0FE69680978002951D1714988424ED083
:1010500003990F0201993843C8802088022101902A
:101060005AF798FC0490228800995DF71FF80498BD
:1010700000283FD0696800208880019802226B46D2
:10108000039907C36868049B821C011D801D41F7FA
:1010900001FC6968087004985AF7F7FC6868418891
:1010A000002902D00178002954D0018940393F2914
:1010B00044D8017830291ED00146544A05980C398D
:1010C0001058083041F74AFD69680398891D41F7B7
:1010D000F2FB4628686801891FD00322039853F762
:1010E00017FF00282CD0808A00282CD028E00398F5
:1010F000FFF78AFE42E04A49098D0906C90F07D069
:1011000048490C380968099A898D89B25AF786FDD1
:1011100068680C385AF78FFD12E00322039853F7E2
:10112000F7FE04000CD039460A3104233948099AE5
:101130005AF73EFDA1894180102101705AF751FDF7
:10114000002068601AE0686800220189039841F76E
:10115000ADFBF5E70189084640383F280ED8032249
:10116000039853F7D5FE002808D0808A002805D1BF
:10117000686800220189039841F798FBB07941F72C
:10118000A2FC00200BB0F0BDFFB58BB00646169850
:101190000027022821D00D980188149881427DD320
:1011A0007188084640383F2802D8159853F7F1FE59
:1011B0000C98361D0088149A80190E995CF776FFFA
:1011C0000C980188149808180C9908800D980188CB
:1011D0001498081A0D99088069E100200E9D079067
:1011E00069782C78090221433180E978AC780902CA
:1011F000214371808C46403904242D1D024603464C
:101200008E46402900D3287861460DE0AC7DFD076D
:10121000FFFF0000260E0000E078FD07010A000035
:101220004C7EFD075876FD0704291FD0052914D0F0
:10123000062918D070463F283ED8159853F7A9FEC6
:101240000006000E04D0FC48008D0006C00F31D00F
:1012500002230120F94A002712E0697800290FD003
:10126000F74A17230CE0F74A0F2309E0522802D06F
:10127000D22802D002E0142000E01520F24A1F23F9
:10128000002A7DD098427BD280001058049000281C
:10129000F7D0002008900590708800E006E1403803
:1012A000402803D32878052430716D1C701D0090F0
:1012B0000498AFE03027EDE03327EBE0522864D00C
:1012C0000CDC4B283FD004DC41286AD042285AD19C
:1012D00011E04C2820D0502855D140E0632830D070
:1012E00004DC572818D061284DD19BE06C2864D0CD
:1012F000772848D109E00098297801700098641C8B
:10130000401CA4B26D1C009081E00498401C049025
:101310000178089881427AD10098A41C401C4108A9
:101320004900881C009068782A78000210430880E1
:101330000599AD1CA4B2002969D008900020059041
:1013400065E00120FBE71022294600985CF7AEFE1D
:10135000009810341030A4B21035009057E02046A9
:1013600040301499039088420DD8402229460098B5
:101370005CF79CFE009840300090039884B200E037
:1013800079E0403543E0342741E0082229460098BF
:101390005CF78CFE009808340830A4B20835009041
:1013A00035E00622294600985CF780FE0098A41DCF
:1013B000801DA4B2AD1D009029E01498001B80B2DE
:1013C00003903088001B001D81B201200790049813
:1013D000401C04900098401C400840000090049875
:1013E000007857281CD04228CDD100980170090AF6
:1013F000417000982946801C0090039A5CF756FEC5
:1014000003980399201884B200984018009004981B
:10141000401C04900078002820D0002F19D01DE037
:101420004908E2E71498001B80B203900098039AE1
:10143000401C41084900012000910790294600986E
:101440005CF734FE03980099201884B203980818BA
:10145000DCE70D990988A14200D32FE70D98008899
:10146000A04208D304990978002904D107990029DA
:1014700003D1A04201D034270CE00D99001B088055
:101480000C9801880098801B001F08180C99002FE9
:1014900008800CD07088042809D0062807D040386E
:1014A000402804D30E984079707100E03427384604
:1014B0000FB0F0BDFFB581B01F4616460C46104672
:1014C0005AF72BFD00253F2802D02189062908D094
:1014D0003B4632462146019854F7E7F80546284630
:1014E000B4E4000701D50225F9E720780028F6D1F9
:1014F000300AA11D41F7E9F8F1E7F3B581B0019891
:10150000524C850060590F464068CE880146243110
:10151000009146F70BFF00994D4A40310091C9896F
:10152000701A80B2904214D2B14212D06059314642
:10153000406845F7B4FF60590522791C1F305CF7FD
:10154000B5FD019805210002401C80B25AF7B3FC9A
:10155000FEBD60590522791C1F305CF7A7FD00987D
:10156000808841F78FFFFEBDF8B53A4C06468500EE
:101570000F4660594821095C24290ED100691022C8
:10158000791D2E305CF792FD61592520403108729B
:1015900000221146304652F761FE60594821095C2D
:1015A0000C291FD100691022791D2E305CF77EFDB9
:1015B00060595F210069095C09072DD401462E316D
:1015C00010221E305CF796FD00280CD060590921CE
:1015D00040300172304653F75FFB0146002230462F
:1015E00052F7C7F9F8BD0421684601706A46052123
:1015F000304652F769FB684601786020014368462F
:101600000170304653F748FB0146684602780123D3
:10161000304652F7C3FAF8BD304653F73DFB012878
:101620001AD060590721403001720022114630461D
:1016300052F714FEF8BD00004C7EFD0714F3F107CD
:101640001CF3F10778F3F107B4F3F1071879FD07FC
:10165000FF7F00002C7EFD07615900200969C03121
:10166000887160590421026930461E3252F72CFB02
:10167000605901694031897F002907D01A21403023
:1016800001720021304652F773FED3E71B21403030
:101690000172304652F7C1FECCE7F8B5FC4C054666
:1016A0008600A0594822125C192AC3D14022493031
:1016B000491D5CF7FBFCA0594022F64949305CF714
:1016C00019FD002805D0F3492846203959F771FF44
:1016D000B0E70B21684601706A460521284652F79B
:1016E000F3FA684601786020014368460170284695
:1016F00053F7D2FA0146684602780123284652F78A
:101700004DFA97E7FFB581B003980C46060A00250D
:101710005AF703FC002818D0132816D0142814D028
:10172000DD48B700C0592030407BC00628D503985B
:101730005AF7F3FB15280CD0A07941F7C4F93046CD
:1017400045F7DBFD032806D015E0A07941F7BBF98A
:101750001FE002251DE0D048C0592030407B4007E3
:1017600004D53D21304641F7E6FD04E03D2200214D
:10177000304641F7EEFD3D21304644F73BFE08E0A0
:1017800020460C38C5498180C68020464DF7C0F9F7
:1017900001252846A4E6F1B58EB00E9841F7A0F9D0
:1017A00004460E98694600794006C00F0A900690DC
:1017B0000A208883628BBA49101A88427ED2E08A56
:1017C00006287BD31921C901884277D8238BFF21B2
:1017D000F5318B4272D85B1C990059184143491C62
:1017E0000A2349105A43914268DC217F00290CD119
:1017F000617F002909D1A17F002906D1E17F00295D
:1018000003D12021095DC90658D0274620377978B1
:10181000C906C90E491F0C2950D2A18A81424DD850
:10182000E17C00294AD0421E082A01D9082000E0A4
:10183000401E814242D805A844F7C4FD00283DD18E
:10184000984D0622E861214608A85CF72FFCA8788D
:101850002E46803E00287ED06079800901280AD07B
:1018600020460A994AF7ECFE00285ED03821095C30
:10187000002954D059E020464AF74FFFE86100287C
:1018800004D10BA920464AF75EFFE861F16A887A25
:10189000012801D0042810D1E86900280ED00622C2
:1018A000253010315CF726FC002807D1E869F16A81
:1018B0002030C07AC97B884200D100E0A2E0E9690B
:1018C000002932D0062208A825315CF7EFFBE86931
:1018D0002B21095C07AA253006914AF793FD0028C1
:1018E0000FD0E8692030C07A002811D168466E49CF
:1018F000808B49F739FD07AA01216B484AF782FD21
:1019000006E007AA01210BA84AF77CFD00280CD0AD
:10191000E9696846808B323149F73CFD05E04218A1
:10192000527D002A08D010296CDBF06A407A022828
:1019300006D0032804D00EE0491C1029EFDBF4E7A1
:101940006846808B0A2806D307AA20460A994AF7D8
:1019500059FD002856D0002205A920464AF7FCFD73
:1019600000284FD1F06A407A02280BD0032809D012
:1019700000236846828A08A806994AF70EFE0028C6
:1019800002D02EE00123F4E7E18A68460180218B32
:101990004180618B81807878062241096846817395
:1019A0007878C106C90E684641732146801D5CF7F0
:1019B0007DFB0E9800794006C10F68460173838A4B
:1019C0002146B26D45F7ABFC0146B065684641F76C
:1019D00051FB0020B065214668461C31808A44F7DF
:1019E00044FD47F7E2FC2F4C20342079002805D035
:1019F000002109205AF778FB0020207100210846B9
:101A00005AF759FA54E570B516460C46488853F70C
:101A10001AF90546FF2838D0012153F78AF90C2816
:101A200004D100220121284652F76CFF0023E01860
:101A30000079002803D15B1CDBB2082BF7D31448D4
:101A4000A9004058006900280AD04030C07F000734
:101A500006D4082B04D30121284652F724F814E0B9
:101A600029021E23324611480A315AF7A1F80546C9
:101A70000B202870A089688228460822211D143076
:101A80005CF714FB28465AF7ACF8002070BD000044
:101A90002C7EFD07EC7DFD071879FD070608000088
:101AA000770C0000E479FD0704E5F107160E00004D
:101AB00000207047F7B5784E0D468700F15982B087
:101AC0000E2D08D10A69002A05D0537EDB063DD5CC
:101AD000927CD2063AD540310402C97920460A30B8
:101AE000C907009000290AD00146E32000015AF7F7
:101AF000FBFAF0594030C17949084900C17105200D
:101B0000A11D48234002009A5AF752F804460620C5
:101B1000A0806249A571A8000A58A01C04999047AA
:101B200020465AF75EF8052D10D00E2D0ED05C48D9
:101B30000099006880304269E32000015AF78AFA70
:101B4000F05901224030C1791143C171C8E4F8B5A0
:101B50000C4605465049800008584030C07940077F
:101B600017D4204640F7ACFD69460870002809D01C
:101B700007280ED00121284653F7DBF860260C28F1
:101B800008D00EE02079474980000A5821462846AF
:101B900090474FE56846027801213243284652F7C4
:101BA000B1FE6A460521284652F78EF820790128B1
:101BB000EFD00B28EDD0284653F76EF80146684663
:101BC000027801233243284651F7E8FF32E538B561
:101BD0000D46044653F760F801280DD1204651F711
:101BE000DDFD69460870002807D0092804D10A469F
:101BF0000521204652F768F838BD2749A00008584B
:101C000000690028F8D10121204653F792F80C28EA
:101C100004D100220121204652F774FE21020A312C
:101C200008230A46204859F7C3FF04460A202070BB
:101C30000622691D601C5CF739FA204659F7D1FF6E
:101C400038BD70B50C460546012153F772F80146C0
:101C500070200C2911D0104AA90051580969002997
:101C60000AD064790443284653F716F80146002346
:101C70002246284651F792FF08E762790121024384
:101C8000284652F73FFE01E7094808490160094923
:101C900041607047704770472C7EFD0730F4F107B4
:101CA0005876FD076CF4F107120E00008CBFF107A7
:101CB000C0000840B072FC07F8B53E4C6088C6070B
:101CC0006088F60FC005C50F60884008400060803E
:101CD0006088FF270137B843608040F771FE40F706
:101CE00075FE00220821022040F764FE002800D083
:101CF00001206188A18861884908490031436180D9
:101D000061882A02B94311436180F8BD70B501258D
:101D100029492A020A60BFF34F8FBFF36F8F27490B
:101D20000A6027490B681C0A240240231C430C60EC
:101D3000214980390A601F494C880626B443241D76
:101D40004C804C882C434C804C8838252C434C804C
:101D50004C889C434C800F280FD14888330218438D
:101D6000488048881043488048882A0210434880A9
:101D70004888012292039043488070BD10B5114CF1
:101D8000E18A114ACBB21189248BC904890E6404FB
:101D9000640E001B093141430120C002401A80B289
:101DA000584340031189000E090A090201431181B9
:101DB00010BD00002020005080E100E080E200E043
:101DC00008E400E000230050002C0050F8B50202A7
:101DD00005464123092134480A3259F7E9FE2721F3
:101DE0000170044600201F233049AA008F581E1A94
:101DF0004936BE5D2718401C7E702028F6DB002087
:101E00003F238E581F1A4937F65D27182037401C8C
:101E10007E702028F5DB5AF7DDFF0146601C5BF77A
:101E200056FC002812D10A2000906A460521284657
:101E300051F74AFF284652F72FFF009960221143BD
:101E4000CAB201460123284651F7A8FE204659F799
:101E5000C8FEF8BD70B505460446008914490C3427
:101E600088B088421AD100201F216E460A1AA25C4F
:101E70003254401C2028F9DB2022314620465CF7F2
:101E800015F900203F210A1AA25C3254401C202878
:101E9000F9DB20226946A0185CF708F9284649F7C3
:101EA00024FA08B070BD0000270D00002C7EFD074D
:101EB0002620000000280BD000BF00BF00BF00BFDD
:101EC00000BF00BF00BF00BF00BF00BF401EF1D178
:101ED0007047421C0178401C0029FBD1801A7047D2
:101EE00030B503461D78002D08D00A461478521CE0
:101EF000002C03D0AC42F9D15B1CF3E7181A30BDBB
:101F000030B50546002008E00A4602E0A34207D0AB
:101F1000521C1378002BF9D1401C2C5C002CF3D1FF
:101F200030BD00001CB509480090094801900546E5
:101F30000126009C05E0E36807CC33430C3C98473E
:101F40001034AC42F7D3FEF7E7FA00005477FC07F1
:101F50009477FC0701480121018070470815005063
:101F6000F8B505252C0760898007534E22D0A08A3A
:101F7000400701D503F034FB218C802001432184EC
:101F8000FF21718004213180218830220A43228080
:101F9000218803220A4322804849F288B388120428
:101FA000D2188A42F9D335804549C98C6180218C89
:101FB00081432184434801884907FCD4208830218B
:101FC000884320802288032082432280002201232C
:101FD0001A403D4F3A702A0649D06D1E32880227BA
:101FE00017439F4337800422728037881743378016
:101FF00022880A43228022880243228032885207A4
:1020000001D500BFFAE722888A43228022888243D2
:102010002280F288B7881204D2192C4FD219042AD0
:1020200011D90022264F3A853F79002F01D019227D
:102030001701234A926B921CBA4200D33A46204FB2
:10204000BA631A46C3E71E4A118D491C118589B22D
:1020500014290CD300211185117A002900D01321F5
:10206000926B521E8A4200D80A4615498A636189DA
:10207000890706D0618981436181608C0121884391
:1020800060842089802101432181208A04218843A2
:102090002082A08A8007FCD540F771F90848406B80
:1020A0000B4908600B480168490700D500BE01686C
:1020B0004907FCD5F8BDC04600160050E9030000F2
:1020C0001C48FD07083300509877FC0761F8FFFFB4
:1020D000080200401000004080B50A2000F08CF893
:1020E00080BD80B50B2000F087F880BD80B50C2046
:1020F00000F082F880BD80B50D2000F07DF880BD35
:1021000080B50E2000F078F880BD0000FEB5009389
:1021100001920A4606460120002102925CF70AF865
:1021200032015CF707F807460C46F64D6868084030
:10213000296839400143089800D100BE002804D026
:102140003046029900F01CF803E03046029900F096
:1021500035F868682040296839400143019A00D168
:1021600000BE00980243032E00D10426700102999C
:102170004900081801494252FEBDC04606300050D1
:1021800070B50E46054601240021204632465BF715
:10219000D1FF2A015BF7CEFFDA4A53680B40116882
:1021A0000140194300D100BEB440032D00D10425E5
:1021B00068010149445270BD0230005070B50E46AE
:1021C000054601240021204632465BF7B3FF2A0171
:1021D0005BF7B0FFCB4A53680B40116801401943CD
:1021E00000D100BEB440032D00D10425680101498F
:1021F000445270BD04300050F0B503460A3B012143
:102200000A469A4093B20B4D5C19661C5E400A4B1D
:102210001C8800272E4203D07F1C7608B6B2F9E74F
:102220009443BAB20D46954025431D8081404248F3
:102230000160F0BDFEFF01000E14005016490A882F
:10224000802313430B800368144A13604368536070
:1022500083689360C368D360036913614369536102
:1022600083699361C369D36110623648036853621E
:10227000436893628368D36243691363C36853639B
:10228000006990632D48082202804888800600D4A7
:10229000FEE700BE7047C046120000500000FD0778
:1022A0000248008824481021016070472C13005018
:1022B00020490A89042313430B810A89022313430B
:1022C0000B810A88402313430B801B4A01231360B0
:1022D0001A4A082313804A89802313434B810368D9
:1022E000174A13604368536083689360C368D36080
:1022F000036913614369536183699361C369D3615E
:102300001062104803685362436893628368D36223
:1023100043691363C36853630069906388898006C7
:1023200000D4FEE700BE4889074A10408018001D0F
:10233000488170470800005080E200E00033005000
:102340005000FD0728ED00E0FC7F00007047000012
:1023500010B50F4CA1880F200840022809D004288E
:1023600004D00C280CD00128F4D110E004F098FA25
:10237000F0E720880221884320802088802103E024
:1023800004F08EFA2088012188432080E2E710BD06
:10239000041100500520000701883022914301807C
:1023A00001880322914301800421415E002906D562
:1023B0000E490A88520702D50A88D2070DD18088B3
:1023C000C00609D50A480188090605D50121818082
:1023D00001888022914301807047088802220243CD
:1023E0000A8008880122904308807047000200504C
:1023F000000100502048018802220A43028005495A
:10240000491C02D202889207FAD400210181408936
:102410007047C0465F79FEFF10B51749174A0A801A
:1024200000224A80164A40231360BFF34F8FBFF348
:102430006F8F00281ED00A88124B13400278D202F8
:102440001A430A80104A134640330C881C404378D4
:102450009B0123430B800B881340827892029A18C9
:102460000A8009224A804A8802239A43C0784000A1
:102470001018488010BDC0460015005001400000F3
:1024800080E100E0FFF70000FFFBFFFFF8B525202B
:102490007F4F3856654C2546283547340028294655
:1024A00000DA21467F2210400E1802F09DFF3946C7
:1024B0007231062230465BF7F9FDF87B0090BE7B57
:1024C000114809210422412359F772FB074646703F
:1024D00010203870B81C294632465BF7E7FD2120F2
:1024E000009A3A543846223021465BF7DFFD3846E1
:1024F00059F777FB0548064900F0FEF8644908746F
:10250000F8BDC0469848FD070E0D0000B80B00004E
:102510008D24FC0770B53048092104241823224675
:1025200059F746FB05461B202870FD26304602F071
:102530009FF90021A982E96029616C606E80687052
:10254000284659F74EFB70BD0120704710B5504822
:10255000C17A124ACCB20C236343D45CFF2C06D060
:10256000D318491CC1725B68002BF3D00DE0017BCE
:102570000B4ACCB21C236343D45CFF2C08D0D31885
:10258000491C0173DB68002BF3D09847002010BD75
:102590000021C1720173012010BDC046D873FC0731
:1025A000F46CFC0770B50C48092104240A23224668
:1025B00059F7FEFA05461B2028701426304602F013
:1025C00057F9FF21743129816C606E80687028464C
:1025D00059F707FB70BDC0461B0D00001FB5144620
:1025E00001220292044A0192069A00921A46234658
:1025F00000F078FA04B010BDF86BFC0710B5044683
:1026000001020A3108480422022359F7D1FA1321A2
:102610004170012101700C216143044A51180022CC
:10262000CA7259F7DEFA10BD040E00009848FD0783
:1026300070B5174E746C002C27D11648092504225A
:102640005223294659F7B4FA0446706407260672E5
:102650001148E080A0800D2020800020A072182268
:10266000E2720120607220460C300C495BF71EFDBF
:1026700020462B3085700821417020462E300849B5
:1026800032465BF713FD2B202554204670BDC04613
:102690001C48FD070D0D00004C040000F076FC07FF
:1026A0000C77FC07F8B500920D468100104A565889
:1026B0005418002E0AD101020A310E4804271E23A5
:1026C0003A4659F775FA064607702060B71C102184
:1026D00038465BF704FD38462946009A5BF7E6FC6E
:1026E00001207070304659F77CFA00202060F8BD58
:1026F000FC46FD07140E0000B0B502461C4824300D
:10270000002423460A2B0BD00568002D02D0001DA3
:102710005B1CF7E701605C1CE0B2114600F0ECFBCB
:10272000E0B2B0BDF8B50446401E09281BD8A00091
:102730000F494718386A002817D00E4DA84214D008
:1027400020370D482018401C0426314659F7CCFC90
:102750003D60082308483146324659F729FA04708B
:1027600059F73FFAF8BD00BEF8BD00BEF8BDC0463F
:102770000049FD079D68FC0702040000F0B585B024
:10278000039302920E4607460020041D202C0ED013
:1027900004A900910AA10D5838463146029A039BBC
:1027A000A84700282046F0D104A8007806E0384663
:1027B0003146029A039B04F0D1F8002005B0F0BD29
:1027C000F129FC07DD2DFC07112AFC07B52AFC07BF
:1027D000DD25FC077D2BFC074925FC07FEB50646D9
:1027E00008050D0B002800D06D1C012D00D8012517
:1027F0007E480640FF2000241A4F0195AC422CD0A1
:1028000003F052FA002828D103F082FA002824D1DC
:10281000022003F099FA012040070296304303F0AA
:10282000A7FA0026104D03F048FAC0070CD03888EC
:102830000006F8D528680004F5D40C4886420BD071
:10284000761C59F7CAFDEEE7029805490818461CA0
:10285000641C0020019DD1E7FF2040B2FEBDC046B0
:10286000FF0F0000080000503000004080841E0070
:10287000F0B585B00390049200918A4200D200BE68
:102880000498039908180190009DE81E0290002604
:102890003046C4B20298844216DAE74340F76BF838
:1028A000010E019AD155D119491E020C0A700499E2
:1028B000091B039A5118CA1E030A1370091F0870D6
:1028C0002D1F201D361DE4E7F0B20099814210D182
:1028D000009AD04304994018039B1818891AC9B26A
:1028E000002904D000220270491E401EF8E705B0FE
:1028F000F0BDFF20C043F143014301980C18E8B23A
:10290000C50040F738F818216A18182AE0D00246A6
:10291000CA402270641E0839F6E70000F0B585B0A1
:1029200014460F46029031480840884202D138468A
:10293000214608E0E1190A467A40120B05D001222F
:1029400012038018091AFFF749FF0025284603F0F3
:10295000FBF9FF2656488068C01B844200D304461A
:102960003E43009522460194A5423CD2D019B04284
:1029700001D8049202E0F01B401C049003F094F98B
:10298000002831D103F0C4F900282DD1039602208C
:1029900003F0DAF903F03CF90126700607433846E4
:1029A00003F012F9002003F0CFF9049887B2FF2F4B
:1029B00000D9370202984419380405D0207803F072
:1029C00003F97F1E641CF7E703F01AF903F08CF992
:1029D000002809D104984519019C621B3002039913
:1029E0000E184F1CC0E7009805B0F0BD00F0FFFFC7
:1029F0001FB514460E220292044A0192069A0092D2
:102A00001A46234600F06EF804B010BD006CFC07B7
:102A100010B5014601200A4A914210D3121D91427D
:102A20000DD8029CF231C8B28100064A50580028E5
:102A300003D0511800220A6080470020207010BD8A
:102A40000E040000E846FD07F8B50546DF48007DA6
:102A5000132828D114460F4603F026F9064600280D
:102A600023D1134880680090022003F06DF903F031
:102A7000CFF803200006384303F0A6F800263046BE
:102A800003F062F9E0190099884207D9CC1B05E0F0
:102A9000002003F099F82870641E6D1C002CF7D1FB
:102AA00003F0AEF801E00020C6433046F8BDC04652
:102AB0000078FC071FB5144607220292044A0192CF
:102AC000069A00921A46234600F00CF804B010BD96
:102AD000706CFC07E0B503F0FAF801A803F0A2F867
:102AE0008CBD0000F0B585B001260C9C002C25D0D3
:102AF00004960191029303920B9B0A99E500EE184C
:102B0000083E671C0F4B7F1E012F16DB34463588AD
:102B1000854203D02646083E9D42F4D16568002DCB
:102B2000049E03D100BE6568002D07D00C4601ABA2
:102B30000ECBA8472070002600E0049E304605B06A
:102B4000F0BDC046FFFF000070B50B48042409210A
:102B500022460B4659F72CF805461B202870FC2608
:102B6000304601F085FE002129726C606E8068702D
:102B7000284659F736F870BD1B0D00001FB51446E6
:102B800004220292044A0192069A00921A462346AF
:102B9000FFF7A8FF04B010BDA86CFC07F0B593B018
:102BA0000D908A48826DD0B20109282318461091F1
:102BB000484371490E180F2010400F908700F159BB
:102BC00000200890C543012009910029129000D0EF
:102BD0002846F05111020C0F19460C946143664CC3
:102BE00067181103090F119189007C580294002C79
:102BF000129E00D02E467E50170F19460797794334
:102C00005D4C67181101090F0A9189007C580494E2
:102C1000002C129C00D02C467C501104090F0E9100
:102C20004B435549CB181105090F0B9189005A5890
:102C30000592002A129A00D02A46039406925A500E
:102C4000099900292A4600D10A460F9FBA40410837
:102C50001F243B466340D9401143B840109A1201EB
:102C60005BF768FA454F7A680A4339687A6001432E
:102C700039601199099461407008C840029A002A8D
:102C8000294600D11146119A9140014396400C9873
:102C9000020130465BF74EFA7A680A4339687A6077
:102CA000014339600A990998414003980246400857
:102CB000C840049B002B294600D119460A9CA1401C
:102CC00001431046A040079E32015BF733FA7A6851
:102CD0000A4339687A60014339600F980D9AD071C0
:102CE00016711098907154711198D0700C98907062
:102CF0000B9951700E981070099A4A40069948082D
:102D0000D040059A002A00D115460B9CA5400543EA
:102D1000A1400E9E0846320129465BF70BFA7A68FD
:102D20000A4339687A6001433960129800900320A1
:102D300005020823124F304621462A46B8473E4630
:102D40000D9CE179A079089F009707232A46B04798
:102D5000E178A078009706232A46B0476179207968
:102D6000009705233A46B04720786178174AD1701A
:102D7000907013B0F0BDC0467C47FD079848FD0732
:102D80000D21FC0770B5114C207D032817D1EFF3FE
:102D90001086012585F310880D480188A94301801C
:102DA0000C4801880C4A0A40028002F029FF002EDC
:102DB00002D085F3108802E0002080F310881420F0
:102DC0002075002002F084FB70BDC0461C48FD0742
:102DD0000012005004000050FFF7000010B50C4630
:102DE0006149884233D0384A90421DD037498842E1
:102DF0003ED12078401E09285AD88000354908184D
:102E0000416A364A914255D03348814257D12E48C3
:102E1000042108230A4658F7CBFE21780170616827
:102E2000416058F7DEFE4AE02078411ECAB2092A06
:102E30003CD88900274A51184A6A274B9A423ED10A
:102E4000CA6C24310A60616800F056F837E06268A5
:102E5000002A01D100BE62681D48824201D300BE33
:102E60006268207818494018042159F7F3F826E0E1
:102E7000531C0121984225D30A32904222D8C1B274
:102E8000091F8900134A5218516A002917D0124BA2
:102E9000994214D0114B994211D013462433C01ECD
:102EA00000241C60D464C0B2884708E000BE06E07D
:102EB00000BE04E00146243100220A60C264029888
:102EC00000210170084610BD030400000204000048
:102ED000FDFF3F000049FD079F68FC079D68FC0758
:102EE000B0B50C460025202D04D03FF744FD6055B9
:102EF0006D1CF8E70020B0BD70B50C4605461949B9
:102F00000888000618480ED5184A126812040AD418
:102F1000174A1288D20706D14019801C0421224684
:102F200059F798F870BDEFF31083012282F31088EF
:102F30000988090603D40F490E8816430E80002B1A
:102F400002D082F3108802E0002181F3108804216E
:102F500008230A4658F72CFE4460057058F741FED6
:102F600070BDC04608000050010400003000004061
:102F70005877FD0708330050704770B514460D466A
:102F80000646FD2002F02CFC002800D100BE00699E
:102F9000002C00D100BE002D00D100BE002804D0BE
:102FA0000179B14204D00068F8E70020288002E0EF
:102FB00041792980801D206070BD000070B51546E4
:102FC0000C46104658F7A9FF002816D1FD2002F044
:102FD00007FC0646002800D100BE09480821062348
:102FE0002A4658F7E5FDA1884180A1790171B18891
:102FF00062885118018058F7F4FD002070BDC0466A
:10300000180C0000FEB5154602910646FD2002F0A0
:10301000E7FB0446002800D100BE10342746029A80
:103020003F68002F0ED03879B042F9D178798242CA
:1030300019D00022204639463FF7E4FD384658F7BC
:1030400024FD029A0195154608350121284658F7B6
:10305000A1FC07462946019D5BF741F82046394609
:103060003FF77CFD029A7A713E71B81D29465BF7E5
:103070001DF8FEBDF8B50C461F4D143500690090D3
:1030800001271E4E2D2F0ED02879022808D128683E
:103090000088B04204D1F9B20022204600F016FAAE
:1030A00014357F1CEEE702200099085E5649014066
:1030B000C20B200210400843002158F7FCFEF8BD67
:1030C000F8B50C46082900D300BEFE4D1435012684
:1030D0000A4F2D2E0ED02879022808D128680088A2
:1030E000B84204D1F1B20022204600F0EFF91435C5
:1030F000761CEEE7F8BDC0462C6DFC0702290000E7
:1031000070B505460469264610363068002805D09B
:1031100030463FF707FD58F7B8FCF6E70020286176
:10312000204658F7B2FC70BD7CB5FD2002F058FB7C
:103130000446002800D100BEA568607B6E4601AA47
:103140003146FFF71AFF3088082800D000BE217BE7
:10315000019807290CD84A1C2273435C6E7B012E10
:1031600002D1DB0702D012E09B0710D41146F0E732
:10317000A068C28801896B7B2248012B19D10423E6
:1031800058F716FD00218170E98901801AE0A068D6
:10319000C2882B8AC12000010902083189B2083394
:1031A0009BB258F705FD0646687B002817D113200F
:1031B00016E0801C80B2062358F7FAFC002101714A
:1031C000E989418058F70DFDA06858F75EFC0021A1
:1031D000A16062880C48104058F76DFE7CBD12203B
:1031E0003070A088E9890818B0802A8AF2803046B9
:1031F0000830123529465AF759FF304658F7F1FC86
:103200007CBDC04607FD0000FF7F000010B50446EE
:10321000FD2002F0E5FA002800D100BE81798C4241
:1032200002D28088001900E0002080B210BDB0B545
:103230000C460546FD2002F0D3FA0146002800D1D5
:1032400000BE8A888020954206D389798918A942D0
:1032500002D9A81A20700020B0BD0000F0B595B0CA
:103260001E460292089105462824012120460D9110
:1032700058F790FB074621465AF731FF0795049708
:103280002F61089B1E20019630403F21C943411801
:1032900003915F21C943411805917F21C94340181B
:1032A00006900022874E032A00D1CFE01D460798E2
:1032B000848A11A881490180511C81480B91415C8D
:1032C0000C92875C781CC2B291420F91084600D8DC
:1032D00010460E92F9430818C1B21820484318301E
:1032E000032158F757FB29880546018044801424A0
:1032F00020460A97784331180A79022A069803D0A3
:10330000042A059800D003982871A81D0969102285
:103310005AF7CCFE0E9A54433719002409972346D6
:10332000D0180F99884246D23879102829D004281D
:1033300013D002283BD110932E462D1938680178FE
:1033400040786876297628461A300E215AF7C7FE4B
:10335000B868010C6985288523E010932E462D1945
:103360003868017842788378C078E876AB766A76F8
:10337000297628461C300C215AF7B1FE0D9880049E
:103380000AE010932E462D1928461830396810226D
:103390005AF78CFE0D98C004B9680843000C688584
:1033A0002985B889311988850E9A3546109B1437BE
:1033B00018345B1CB4E76B712F4628464CF763FD4D
:1033C0000E9B04460028099D13D0384658F75DFB34
:1033D000089B18880C99002901D1049988800F99BD
:1033E0000A9A891A08181880002C0B9A354E61D158
:1033F00059E7388808990880002426460F988342A8
:10340000E3D2002CE1D10C20285E761C0024002899
:1034100019D4E989002916D02879022808D128680A
:10342000027840780002801811AA128890420AD0CF
:10343000F0B23A88101880B21C462B6900224CF773
:10344000FCFD2346044614355B1CD7E72D20049A67
:103450009071FD200799C8820D9DCD811A48486062
:10346000888A50801046243088600198C0030299F1
:1034700008431080103210463FF74CFB0024139491
:10348000129414362D2D10D0307902280AD10B4811
:10349000FF3031680988814204D1E8B2082112AABC
:1034A000FFF7B0FD14366D1CECE70798808A2146C3
:1034B00058F701FDE0B215B0F0BDC046032800008A
:1034C000F06CFC072C6DFC07B070FC07F0B585B004
:1034D00000920C460646082800D300BE04AF03AA9B
:1034E00020463946FFF749FD3888002800D100BE44
:1034F0000399002901D100BE039904A8078801ADF2
:1035000028463A465AF7D2FD0098A8552046394633
:103510002A46FFF777FD05B0F0BDFEB514460E460E
:10352000FD2002F05DF90546002800D100BE00969E
:103530007788AE880194204658F7EFFC012801D126
:1035400002271BE0B81980B201F034F9002801D13C
:1035500000BE002002A9FFF76AFE00280198009C27
:1035600000D000BE0127394658F7A5FC002028737B
:103570000C3CAC6002986873FFF7D6FD3846FEBD80
:10358000FEB514460E46FD2002F02AF90546002835
:1035900000D100BE00967788AE880194204658F787
:1035A000BCFC012801D102271BE0B81980B201F050
:1035B00001F9002801D100BE002002A9FFF737FE63
:1035C00000280198009C00D000BE0127394658F71A
:1035D00072FC002028730C3CAC6002986873FFF703
:1035E000A3FD3846FEBD10B50C46FD2002F0F8F8EC
:1035F000002800D100BE80886188081880B2A188A8
:10360000A31D002422464CF718FD204610BD0000E3
:1036100070B514460D46104658F77FFC01282ED190
:10362000287801020831AA791648002A0CD089B2FC
:103630000623224658F7BCFA0646A878FFF7E6FDAF
:103640003080A879307113E0AA8889B2921D93B2B4
:10365000224658F7ADFA0646A878FFF7D7FD0021B5
:1036600031713080AA887280701DE91D5AF71EFDE5
:10367000304658F7B6FA0021204658F71CFC0020C7
:1036800070BDC046140C000070477047F0B593B091
:103690005821394C605C002866D1019137A003A9FC
:1036A0000A46274678C878C2384608300A4610329B
:1036B0000346F0CBF0C20A46203278C878C22E4CBE
:1036C00020680025401C206062686A416260109595
:1036D0000F95119012921834402220465AF7E6FCBA
:1036E0000A2D33D00295002120292CD02748425C96
:1036F0009300E55847187A789200A658AD19E5501E
:10370000FE78B600A05968401025E841A051BD7868
:10371000AD00675938186051A75847401420C74179
:10372000A750E058C019E050A35943401820C341A6
:10373000A3516059C0186051A35843401920C34198
:10374000A350091DD0E7029D6D1CC9E700200A4C5B
:10375000402807D003A90958221893695918916184
:10376000001DF5E710200199401E6054C0B2800092
:103770002018806913B0F0BDA077FC0765787061F0
:103780006E642031362D62797465206BD06CFC0735
:103790005821044A0023535400BA136053609060C8
:1037A0007047C046A077FC077047704770B5054664
:1037B0000469261D3068002805D030463FF7B2F96D
:1037C00058F763F9F6E700202861204658F75DF9BD
:1037D00070BD10B589B2431C002009280AD00C46E0
:1037E000C440E40704D09CB2641C944203D09B1CE8
:1037F000401CF2E70920C0B210BD0000F0B58BB04C
:103800001E4607920F4604461098069000880890BE
:10381000012200210B46092B13D006258D4009916A
:1038200021463446089EDE403846012737407E4216
:1038300007462E40324326460C460999891C5B1CDC
:10384000E9E70A92802030439E210140A08A03913B
:103850001D4902910190002000901C490AAA1323DF
:1038600038464CF7C8FE0546002829D1089720277E
:1038700001210591384658F78DF8099606463946D4
:103880005AF72DFC266130461E3011496160A06058
:103890000898008830830598E0811420E082A08A8F
:1038A00070800998C0030799084330800698008803
:1038B0007083301D3FF72EF9A08A002158F7FBFADC
:1038C00028460BB0F0BDC0464071FC070A18000046
:1038D0002472FC07FEB5019302920C46142001F0FD
:1038E0007FFF0546002800D100BE2778082F13D897
:1038F000698B288B3A4600F0F7F800280ED06078E4
:103900008D26802838D8082F0DD0072F08D0062FF5
:103910000BD1082809D02FE081262DE082262BE04C
:10392000062802D228E0072826D12E1D35462D680C
:10393000002D0BD02979B942F9D100223046294611
:103940003FF760F9284658F7A0F860780830012161
:1039500058F720F80546617808315AF7C0FB2078FF
:10396000287162786A71A81DA11C5AF79FFB304626
:1039700029463FF7F3F80026064802230199029AE8
:1039800058F716F921780170467058F72AF9002087
:10399000FEBDC04601140000F8B514460D461046A1
:1039A00058F7BBFA01283FD1142001F019FF074650
:1039B000002803D0798B388B3E7F06E000BE1A20AA
:1039C0000188182000881C221678324600F08CF8F6
:1039D0000090787F010208312A781448964212D16B
:1039E0006A7889B2931D224658F7E2F8064600200D
:1039F00030710098308068787080701D6A78A91CDA
:103A00005AF754FB09E089B20623224658F7D0F84A
:103A100006468020307100983080304658F7E1F833
:103A20000021204658F747FA0020F8BD140C00008A
:103A3000F8B51F460C46087808281CD80725002131
:103A400000911AA6784400794000874419040C04B8
:103A500006060F0912001A4E12E00D25174E0FE050
:103A6000062514A60CE00A2516A609E008251AA6C4
:103A700006E017A604E000BE0026012000903546AF
:103A8000AB1C1848394658F793F807462078387029
:103A90007D700098002804D1B81C31462A465AF798
:103AA00005FB384658F79DF80020F8BD52656E6555
:103AB00073617300FFEEDDCCBBAA00008C76FC07BF
:103AC0009A76FC07312E302E302E302D4C450000DA
:103AD00001D2008005000100123456FFFE9ABCDEC0
:103AE0000000000003140000B0B58BB2411C0020A0
:103AF0000446092C09D01D46E540ED0702D0A2423C
:103B000002D0891C641CF4E7481C80B2B0BD0000E0
:103B100070B50C78A51E052D25D81C0A7D442D797D
:103B20006D00AF4402312023414F7A206043E24AC6
:103B30001518887878216854C0070DD00C20604390
:103B4000D5490E1831460D312846713006225AF7F4
:103B5000ADFA307B772168540C206043CE490818B9
:103B60000021C17448E002F0F9FE45E07A25654382
:103B7000D14C60193A30891C17225AF797FA605DC8
:103B800004210143615537E07A206043CA4908188F
:103B90007821002242540C206043BF490818C274A7
:103BA0002046FEF72BFD27E07A256543C24E7019AB
:103BB0006130891C102422465AF778FA705D204340
:103BC000705519E07A206043BB4A14188B1C488A50
:103BD000002808D020461E301C2219465AF766FAE3
:103BE0002078022106E0A01C1C2219465AF75EFA32
:103BF0002078012101432170002070BDFEB50878B6
:103C0000072834D81C0AC04678440079400087440D
:103C1000032E2E2E3083833B7A2060433F490025BC
:103C20000D540C2060439C4908180127C774A0005C
:103C30003B490E18F46C4C36002C13D10A20034378
:103C4000F52083433C4804221E241946234657F797
:103C5000AFFF044607703060801C384907225AF7CE
:103C600025FA6770204657F7BCFF356054E000BE68
:103C700052E0487803284FD87844007940008744C0
:103C800001443D4128A13EE07A2666432348851938
:103C90004F782F772846143008210A46FEF7E8FDB2
:103CA000A81C0090102239461746FEF7E1FD3EF7AA
:103CB00062FE1A4B995D01220A439A55688220469A
:103CC00000F03EFE297F0177698A4182E98AAA8A4B
:103CD0006B8B2D8B058343838282C182801C00996C
:103CE0003A465AF7E3F9204600F02AFE57F779FFE3
:103CF000A0000B490818002101650DE0094801905A
:103D000001A905E0891C102203E00648029002A9DF
:103D100004222046FEF7C6FC0020FEBD0047FD073A
:103D20001C48FD0740E201000001020304050607EC
:103D300008090A0B0C0D0E0F140E00004C77FC073F
:103D400010B50C78012C03D0092C09D04C7802E076
:103D50004C78432C02D0002C00D000BE02F0FEFDB7
:103D6000002010BDF0B585B01D4610460F4658F72F
:103D7000D4F802280BD12E0A00D000BE0C207043CC
:103D800045490C18A672FF2E03D10A344EE000BE3E
:103D900053E004943C46049F083701200390F870D8
:103DA00004200290032158F786F820883880607A32
:103DB0003871781D2746049C39460A3106225AF785
:103DC00075F97A2070433C4908187821405C0190CD
:103DD0000A200543F520854319482C232946029AD9
:103DE00057F7E6FE2821019A425401462831039AEA
:103DF0004A7057F7F6FEA07A0A34FF2816D0274DEE
:103E00006E74287CFEF78EFC7888082807D310286B
:103E100005D8B888002802D1F8887D2808D07D20F0
:103E2000C0000849FEF768FC687301E002F040FD3D
:103E30002078FF2801D102F03BFD002005B0F0BD45
:103E4000020E0000FD54FC0710B51C46104658F742
:103E500064F803281CD1200A0C2141430E48401865
:103E6000FF2141810D4C607B002803D0FEF75AFCF6
:103E70000020607301F0B8FA02F01AFD2020215CE6
:103E8000012906D10021215405483EF7ABFC00E092
:103E900000BE002010BDC0469848FD071C48FD0725
:103EA00011111111180A7A22424303488018097827
:103EB00078228154002070470047FD07002070479A
:103EC000F0B589B01D461446087802282CD0012888
:103ED0001FD000283AD101AE202130465AF7FFF812
:103EE0003C480778411C30463A465AF7DFF83B46D3
:103EF0000A3318482946224657F75AFE0446478097
:103F000000202070201D31463A465AF7CFF820464F
:103F10001AE03048468C0F480A232946224657F7B4
:103F200047FE468001210EE00A480A232946224620
:103F300057F73EFE7D2101810021C1801021818043
:103F4000082141800221017057F74BFE002009B083
:103F5000F0BDC0460B0E00000020704710B519469A
:103F6000E1200001062357F723FE002484804480CB
:103F70000121017057F735FE204610BD0020704723
:103F80000020704770B51D460C46087801280AD0FD
:103F900000280DD162880F480270401C211DD2B24A
:103FA0005AF784F802E060880A494884002600E055
:103FB00048260A200543F5208543074804220223AA
:103FC000294657F7F5FD46702178017057F709FE2D
:103FD000002070BD0049FD070D0E00000020704755
:103FE0000020704770B50C78641E162C20D8C0468F
:103FF0007C4424796400A7440D1B161B1B1B1B1B50
:104000001B1B1B0B120B0B1B0B0B0B1B1B1B0B0094
:10401000002070BD487800280DD000BEF8E7487831
:104020004428F5D13FE04878002834D000BEEFE7BF
:1040300002F094FCECE71D4D2C68002C25D11C48A7
:10404000092104222C2357F7B3FD04462860F720EA
:104050002084184820800026668020460A301121DE
:104060005AF73DF86684E683A6832020E0767A211D
:104070001148415AFB2900D3FB21E1847C21405A9D
:104080000E49884200D308462085204657F7A9FDEF
:1040900000202860BCE70420012157F70CFFFEF741
:1040A00055FA0028B4D002F003FCB1E7E044FD0764
:1040B000040D0000030A00006479FD0748080000B1
:1040C00010B5104657F729FF002801D000BE09E0BF
:1040D0000548092104220124234657F769FD04708D
:1040E00057F77FFD002010BD020D000080B510467F
:1040F00057F713FF012809D1FEF728FA002805D049
:104100000420022157F7D7FE02F0D2FB002080BD29
:104110000020704700207047F8B51D4616460C4633
:10412000104657F7FAFE002817D1FD2001F058FB82
:104130000746002800D100BE0948042132460B463C
:1041400057F736FD290A0170E90A00D000BEB98888
:104150002288511A418057F744FD0020F8BDC0461F
:104160000DFD000080B50878FE210140122901D123
:10417000FEF7DAFF002080BDFEB51C4615460E4650
:10418000104657F7CAFE01280DD00027002860D13D
:1041900002960194142001F023FB0646002804D067
:1041A000718B308B06E0022753E000BE1A20018895
:1041B00018200088029A1288FFF70BFB0446082893
:1041C0001ED80097371D3F68002F27D03879A042AE
:1041D000F9D17879831D8C4801992A4657F7E8FC74
:1041E000044602980088208000232371787960803B
:1041F000601D7A79B91D1F4659F758FF20460AE01D
:104200008148062301992A4657F7D2FC029909886A
:1042100001808021017157F7E4FC1AE03477019B9B
:10422000180A70773088DC4A024000B2C10B19408E
:10423000FF2081431143084801262A46334657F799
:10424000B7FC047057F7CDFC2846314657F733FECC
:10425000009F3846FEBDC04602140000FEB51E4653
:1042600015460C46104657F758FE002807D028463A
:1042700057F753FE401E414241414800FEBDFC201D
:1042800001F0AEFA002800D100BE8179238802AA8D
:104290000027178001976A461780591AC9B2132957
:1042A00007D00D2910D102A902220A800A300190FC
:1042B00008E002A802210180300A4DF73EFC694661
:1042C00008800191082007E002A901AA18464BF7CF
:1042D000A8FF07460298801D83B24B4831462A4604
:1042E00057F766FC0546208828802F7102A80288AF
:1042F0006A80002A03D0681D019959F7D7FE284625
:1043000057F76FFC0020FEBDF0B587B01D46144680
:104310000E46104657F701FE002801D002206CE03F
:10432000FD2001F05DFA0290002800D100BE04A932
:1043300000270F703088FEF77AFF024603A8078037
:10434000002A16D0BB1D304829461546224657F78D
:104350002FFC04463088208067802571002D04D111
:10436000601D03A93A4659F7A1FE204657F739FCCC
:1043700042E02F0A04A803781420584385490818FE
:10438000017902291FD1006800881D4988421AD18D
:1043900002920197082F00D300BE06AF05AA184667
:1043A0003946FEF7EAFD3888002800D100BE05989E
:1043B0000028029A019901D100BE0598405C03A92A
:1043C00008800227BEE700200299085EF5490140F7
:1043D000C00B0540FF2085430D430A481E460423B9
:1043E0002946224657F7E4FB4680077057F7F9FB4A
:1043F0000121204657F75FFD002007B0F0BDC04601
:104400000229000004FD0000140C00000020704789
:10441000F0B595B0099317460C46FD2001F0E0F980
:104420000790002800D100BE0CA900250D7020883F
:10443000FEF7FDFE06466088002800D000BE002E74
:1044400000D08DE00998000A05900CA8017814208E
:10445000049148434F4908180179022948D1EF498E
:10446000FF3100680088884242D1029700200B90FB
:1044700008900A900394268830464BF755FD014674
:1044800006908888B4B2844219D3C888844216D86A
:104490000DAD204629464BF766FD089B00930FA9FA
:1044A00010AF28463A464BF751FE3888761EDB4956
:1044B00088420699E5D1601C81B2814201D000BEDC
:1044C000089880B210A900260AAB32464BF7D1FFFC
:1044D000039CA088022851D1E28810A84078800768
:1044E0004FD40220C0430242029F4DD0812612E0E9
:1044F00011951095208810A94BF735FD08201099CB
:10450000085E002806D46288A1882088A31D4BF786
:1045100094FD05462E46002E22D100260798805F86
:10452000A04A0240C00B09990140FF20814311437A
:10453000A088801D83B219483A4657F739FB2546B3
:104540000446801DAA88A91D59F7B0FD0498608013
:10455000A88805992170A08020462C4657F741FB7A
:104560008F48042309993A4657F722FB8670218821
:10457000018057F736FB002015B0F0BD0D26029FD5
:10458000C9E7012A029FB1D805980499FEF79EFF5A
:10459000C1E7C0462C6DFC07FF7F00000AFD00004C
:1045A000F0B585B01E4614460D46104657F7B5FCCB
:1045B000002807D0204657F7B0FC401E4142414139
:1045C0004800EBE07648042331462246039357F730
:1045D000EFFA0746FC2001F003F90446002800D159
:1045E00000BE8020B87028883880A179411AC9B2ED
:1045F000891E0B293B4600D9CCE0370A794409795A
:1046000049008F4405C759C7C7C732C78CC7C7C041
:104610006A88A98804971F46AB1D4BF70EFDB8703A
:1046200020886049014000B2C00B0640FF2086434D
:104630000E433F208002FC220823314657F7B8FA88
:104640000446049850F71CFB002161602080687AC2
:1046500000066060297A090408186060E979090297
:1046600008186060A979012251E06A88A988049736
:104670001F46AB1D4BF7E1FCB8702088494901404B
:1046800000B2C00B0640FF2086430E434648FC2282
:104690000623314657F78CFA0446049850F7F0FA8F
:1046A0000021A1802080E8790002A080A97903225E
:1046B000A2704018A0802DE06A88A98804971F4640
:1046C000AB1D4BF7BAFCB87020883649014000B2E8
:1046D000C00B0640FF2086430E433548FC220823CA
:1046E000314657F765FA0446049850F7C9FA002195
:1046F00061602080687A00066060297A09040818E1
:104700006060E979090208186060A9790222A27044
:1047100040186060204657F764FA3B463AE06988E3
:104720000491A9880095AD1D0195049A0497029300
:10473000019F3B464BF781FC0299887020881949FC
:10474000014000B2C00B0640FF2086430E43009D8F
:10475000A888001D83B21548FC22314657F728FA75
:104760000446049850F78CFA2080201DAA88394608
:1047700059F79CFC2879E0700398A070204657F701
:1047800030FA029B06E0A879E97900229A700902C2
:1047900008186081184657F724FA002005B0F0BDCC
:1047A000160C0000FF7F000002FC000003FC00006C
:1047B00001FC0000F0B58BB004464BF7B5FB024698
:1047C00002909188A0B20026884223D3D1888842E3
:1047D00020D8039404AF39464BF7C5FB002600965A
:1047E00006AD07AC38462946224633464BF7AEFCA9
:1047F0000A4B287821881A46FF32914201D10228BB
:1048000007D09942039C01D1022803D0641C029A6C
:10481000D7E7039EB0B20BB0F0BDC046032800003E
:1048200070B511490A880888012420430880088847
:104830001E2398430880A5020C4845800525058065
:1048400005886D07FCD480880D8814262E430A2520
:10485000AE430E800D88A5430D801A400C889C4302
:10486000A2180A8070BDC0462200005000160050F9
:1048700000220749931C162B07D08A18127D82420A
:104880001A46F7D1C818C07C704704207047C0464C
:104890009848FD07F8B5254FBC68204644F7FFFA55
:1048A000324E316C002232640D181549284659F7F2
:1048B00083FB7861134941434919192000010029FC
:1048C00002D0411AE13189B23961396808220A43BC
:1048D0003A60F16B002911D0A1420FD20A4A127836
:1048E000002A0BD13279002A00D11046611AB26B2E
:1048F0008918891D814200D30146B163F8BDC046C5
:10490000710200008FFDFFFF9877FC0780B5064815
:104910000021016001F03CF90120C00703490A6849
:1049200082430A6080BDC046AC76FD07300000407F
:1049300080B544F7B4FA80BD80B544F7A1FA80BDD4
:1049400010B501468000094A1418206D002800D0D7
:1049500010BD503409020A31054804221E2357F7BE
:1049600027F9FF2108310180206010BD1C48FD0798
:10497000140E000000B59BB05A49C8201890088258
:10498000002048825849082211920A80574C1A90F8
:104990001A98032811DC0020199019991A980929EE
:1049A00009DC2821414360181999890000224250EE
:1049B0001998401CF0E7401CE9E7E5680020C14376
:1049C0000122002D179200D00A46D600484F3B68BE
:1049D00033437E683B601692570F002D0A4600D184
:1049E0002A46D200D2193243414F7A602568002D01
:1049F0000A4600D12A467B6813433E687B60002D3F
:104A0000179A154600D00D462E433E60A769002F29
:104A1000164600D00E46B20E002F0B4600D13B4684
:104A20009B019A18324F7B6813433A687B60B3014D
:104A300013433B606769002F179B00D00B46DA0ECB
:104A4000002F00D1394649018918294F7A680A4355
:104A500039687A605A010A433A601699E160256024
:104A60006361A6617860386022A51A901A980328BD
:104A700044DC00201990199809282FDC19981A99FC
:104A80004900695AC140C80728D028201A994143D3
:104A90006118199A92008958491C00D100BE1A99D0
:104AA00041436118199A92008958002913D01A9924
:104AB00048432018199989004058C117199A59F785
:104AC00039FB1A9A120159F735FB7A680A4339689B
:104AD0007A60014339601998401CCBE71A98401C52
:104AE000C3E7C046F0300050023300507C47FD075A
:104AF0009848FD07FF003F00FF03FF01DA480088E8
:104B0000C046C046D94A012016905070D84C208823
:104B100007210B91884320800F20030205263707C9
:104B2000788DFF211291D2310C912F3109910842D9
:104B30000CD01846FF3021880140700308182080EF
:104B40002088402101433820814321807C88002C2B
:104B5000109300D1C74CD484788C169D2843788458
:104B60000D20FDF7A7F97889284302211391884386
:104B7000788178894006FCD57C807D20C000159026
:104B8000FDF798F97889032108918843788178891D
:104B90000006FCD5788C169988437884B64A0024A0
:104BA0001460788A402318437882788A0E93984359
:104BB000788214945461B148906208040D90D062D8
:104BC000388880210F91084338803F20FDF772F923
:104BD0003888000600D400BE1796A7480088400712
:104BE000A24A00D000BEA44C1698206010466C303B
:104BF000A34909888180A3480068D066A24801883B
:104C000091854088149E26605085788A0E990843C5
:104C10007882788A8843788266619848A0620D9885
:104C2000E06238880F9D284338803F200790FDF7C9
:104C300041F920680B99884320603888A843388060
:104C40009248934959F74BFA179C6102914859F7DA
:104C500046FAFDF720F8904890493022059259F71E
:104C600025FA8F4806708F488F4901608F48904918
:104C7000016090499048086090480A21017090486E
:104C800006709048322101708F4804608F48169E4C
:104C900006608F4804608F480621069101608E48A7
:104CA0000B9901608D48119C046030020A90801DB0
:104CB0008B4908608B4908608B487449016000F09B
:104CC0008FFC388905998843388138892843388191
:104CD0003889304313998843388138892043388193
:104CE000388C28433884788AA043788238890E9992
:104CF00008433881388A042188433882B88A80077B
:104D0000FCD5388C1699084338840803798DC9007E
:104D10000140388C754A024050183884388C28215C
:104D20000143502081433984388C069908433884E4
:104D3000788A119908437882388C0F99884338848F
:104D400038890E9988433881788D099908424848F6
:104D500001D017994180169A91070868644B184052
:104D60001791086007984002624B1968814350030D
:104D7000091819606049491C1A680A431A605F4E95
:104D80003188099189213981188038880F99084321
:104D900038803888089988433880308813990843C8
:104DA000308000F0EBFD3DF70BFE3DF70FFE642079
:104DB000FDF780F852490888089048880790514AC2
:104DC00090880690D0880590C8880490488B0390FE
:104DD0004D480088029010880190149C0C804C80F3
:104DE0004A4890800C98D080CC80C32010804849DD
:104DF000119808800A987C30FDF75CF84549464ACE
:104E000046480090012C00D98AE00C944A80129800
:104E1000888016980880CB88DB07FCD100231E46CB
:104E20001D46ADB2159C1534A54219D2545D5019DA
:104E300080786040169C2040F4B2A0400343761C6A
:104E4000F0B2082807D1149CA0B2344E3354641C2D
:104E5000149400231E462948189C04821035E0E76C
:104E60000C9C641C254ECDE7420000501C48FD07F9
:104E7000820000505A0400000000F407204F101A6E
:104E8000ACFFF807A8FFF80710FEF807005CFD0765
:104E9000781600000076FD07FC76FD0758ECF10758
:104EA000F976FD075076FD075472FC075476FD072E
:104EB000B874FC075876FD07FC73FC07B476FD0751
:104EC000B576FD07DD76FD075C76FD076076FD07AC
:104ED0006476FD076876FD076C76FD077076FD0742
:104EE0004876FD074476FD074C76FD07FFEF00008E
:104EF000FFFEFFFF00020040FFFF1F00F0300050E8
:104F000000240050622800500226005080800000DB
:104F100020200050003500501001FC070C78FC07E1
:104F20000998308000211591DA480180DA48089903
:104F3000018007994180D949069A8A80059ACA80DA
:104F4000049AC280039A4283D548029A028001984B
:104F5000088038880F9988433880D24908310098F2
:104F60003CC83CC15821159CCE4844540460446060
:104F7000CD4800683DF79EF9179A10680A990843D2
:104F80001060CA4823460471C9490C70C470C94DE9
:104F90000B9A2A70FA4CA360E36023611C46681CDC
:104FA000C54959F783F86C840425C449284656F747
:104FB00050FF1298F24988722846214656F77BFF27
:104FC0007220F949EF4A1152F84850675473EC487F
:104FD0002830F7491822149259F768F82A46E94D03
:104FE00024202C541498E881EC652C666C662C7790
:104FF000F0480460142028751299142C05D0E0485C
:10500000001942750175A41CF7E714920025E448C5
:10501000C570E4480570FFF779FCFB4B169A1A71CE
:105020001A721295FD82788CA02101430E9881435B
:105030007984189830824F209863D0481199018064
:10504000DD48DE490818DE4940188008401E0C90F3
:10505000D0031590DC4DDE4C179A3889000647D5F1
:10506000106B1599084243D1CD480088C0073FD145
:1050700057F7B3F9179AE44B587A042838D11298A5
:105080001A901AA8042147F7B5FFDF4B00282ED04D
:105090001698286028680028FCD11798C069196BF9
:1050A000884201D2129919631A78012A0ED1186325
:1050B00012981870FFF7B4FBD349C885FCF7FCFDC4
:1050C000FE4B002813D11698187010E0411AC90938
:1050D00019290CD31863FFF7A3FBF84BD98D411A9C
:1050E000CA175140891A182901D3D885E6E7179ABB
:1050F00072B6AB480079022803D0A5480068806AE0
:1051000000E000201A909D48C088C00700D02FE121
:10511000587801280BD11698286028680028FCD1FF
:10512000D0692168884200D222E10020587056F7E9
:105130000EFB179AE14B002800D119E19848C0787E
:10514000012853D1B88AC00700D088E0944800886D
:1051500000284BD19F48806A002803D08C48006803
:10516000806A1A9000F014FD8D4881781AA856F7CD
:10517000F9FF0028F44B179A38D01069400635D44F
:10518000874881781AA847F735FF179AEE4B002811
:105190002CD0987A002199729C6BD16B8E4B194060
:1051A0001231D1637F490978022900D132340128B4
:1051B00000D12134A002D16B884B19400143D16347
:1051C000D06B76490840372189054018D0631A987A
:1051D0008349884200D300BEC0020B90642158F777
:1051E000EBFE0B99002903D0001F03E030BFBFE0A6
:1051F0006848FE30D44A611C884200D00446D4631B
:1052000067480179481E8141204643F7C8FE75482A
:10521000C06A80471799159A086B1042FCD00A990A
:105220005D4A10680842FCD010680F9988431060EE
:1052300052480089452805D84621504A1181081A4C
:10524000C14908643DF76FF8534A9068BE49486306
:1052500010680006FCD538890F9988433881514879
:105260000078398A149B19433982584A11681943C6
:105270001160798A202291437982398A139A1143E5
:10528000398201281CD1384612304E4C2146F0316B
:105290003DE0C0462020005000240050622800500D
:1052A00002260050A077FC074C76FD075877FD07D3
:1052B000B477FD070049FD070C77FC07D86BFC07A6
:1052C000788A102630437882788A184378820020C2
:1052D0002D4C2060798A0E9A11437982798A914304
:1052E000798260612948A0620D98E06238880F9940
:1052F000084338803F20FCF7DDFD788A30431E4E9E
:1053000078820C9860612F4C214680313846109B82
:1053100002880A400280388A18433882788C2040FC
:105320007884788C169C204378840D20FCF7C2FD8D
:105330007889204313998843788178894006FCD581
:1053400000207880B88A8006E04B179A03D50B4876
:10535000801E1199018030BFB88A800602D50748A7
:1053600011990180194C2068149988432060184CC9
:1053700062B61898308270E6F03000500233005068
:105380009848FD071C48FD070000F407204F101A3D
:105390005876FD07FFFEFFFF00020040FFFF1F00E1
:1053A0005877FD07B477FD0705FF0000CDAB00007F
:1053B000F076FC07E844FD07887200001005FC0742
:1053C000030004F8FFFE0000FC00004010ED00E0C8
:1053D0009477FC07787EFD0700FCFFFFFF03E0FFEA
:1053E00040420F00B47FFD07B848014672318A88F9
:1053F000521C0A71130A4B7191B2044A914202D1B4
:1054000076210022425270471C48FD07FFFF000032
:1054100001207047F8B515460C460146403904296D
:105420000CD8C0467944097949008F4418022330CA
:105430001E002078002832D008202CE007280ED04B
:1054400001282ED1A14F6C371D4906263846324619
:1054500058F750FE002826D02846394627E0207805
:1054600002280CD20420002625E02078002816D03F
:105470000A2010E02078002811D0C4200BE07D2005
:1054800080002870000A68700020022613E020784F
:10549000002804D014202870002001260BE00420EE
:1054A000F8BD0120F8BD0748811C06262846324673
:1054B00058F7FCFD00202670F8BDC0461C48FD07CB
:1054C00090E1F107F072FC0700207047012070475F
:1054D0001CB5044600F0FBFB01A800F0A3FB002C68
:1054E00000D01CBD00F0E0FB0028FAD1002000F045
:1054F0002BFCB92000F03CFC1CBD0000B0B5734C87
:10550000617C002900D000BE88002518A86C4835B1
:10551000002813D109020A310C4804220E2356F741
:1055200047FB0921017028601021818000218181C1
:1055300041817D220281C1800821418056F751FBC3
:10554000002060732860B0BD1C48FD070E0E0000EF
:1055500070B586B00C46064601AD1121284658F7B5
:10556000BEFD3046FCF7B5FC02462846314658F7EA
:105570009DFD6946284600F007FC002C04D0002160
:10558000E180A180618021800022002821D00021BB
:10559000042A21D0551C03461E78002E05D0302E3B
:1055A0001AD35B1C392EF7D916E000210378002BA3
:1055B00005D00A264E43F1183039401CF6E7002C7E
:1055C00001D0500021520020694600F0DDFB2A4640
:1055D000DBE7101F41424141084606B070BD0000A4
:1055E000F8B52F4FB88902218843B881388A00075F
:1055F000FCD501263002F98B0143F98329482A4959
:10560000902258F753FD29482949482258F74EFD62
:10561000FCF73AFB27482849016028A02A491CC802
:105620001CC103252C02E748448000F0E9FAEFF39F
:10563000108086F31088F1023A880A433A800028E5
:1056400002D086F3108802E0002080F31088204802
:10565000082303800189A9430181C6800188314361
:10566000018000960026304629462246194DA8475B
:1056700000960723304631462246164DA84700962D
:105680000621304622460B46A847009605213046A3
:1056900032460B46A847F88920210143F981F8BD1D
:1056A00004000050200008404873FC07C000FC07BD
:1056B0000073FC0700000840FFFF1300000000001B
:1056C00000000000000004000078FC071C48FD07F3
:1056D000001200500D21FC070549884200D000BE91
:1056E00004480188044A11408918091D0180704747
:1056F0001111111112000050FC7F0000F8B50C468A
:1057000005464188C8B2142807D0FD2803D0FC28DC
:1057100025D16D4802E06B4800E06948674E32468B
:10572000163221235B1E05D0178818328F42F9D11B
:105730004220F8BD16362121491E12D03288183673
:10574000FF2AF9D12E3E6B78AA88294608310091AC
:10575000A91D07683046B847002804D0F8BD40208E
:10576000F8BD4B20F8BD6888F082B08A2080002008
:10577000F8BDC046F8B50C460546504E2027002F10
:1057800012D0B07D14284E4906D0FD2803D0FC2845
:1057900007D14D4900E04B49CB68304629462246A7
:1057A00098477F1E1836EAE7F8BDC046F8B50446AC
:1057B000424D2026424F002E11D0A87D1428394694
:1057C00006D0FD2803D0FC2806D13F4900E03D4922
:1057D0008A68284621469047761E1835EBE7F8BDC3
:1057E000364916312122521E06D00B8818318342C9
:1057F000F9D12E390869704700207047B0B52F499C
:105800001431C3B22124FF22641E06D00D88183142
:105810009D42F8D12C39C98A00E0114690430843D3
:10582000B0BDC046B0B525491631C3B22124FF2210
:10583000641E06D00D8818319D42F8D12E39898A10
:1058400000E0114690430843B0BDC046F8B51B4C7C
:1058500000281ED020251A4E1B4F002D2CD0A07DD5
:105860001428314606D0FD2803D0FC2805D139463E
:1058700000E014494968204688470020E0816060C4
:10588000A060FF20E082207D56F75AFB6D1E183481
:10589000E3E71025302D0FD0FF20E082A582002005
:1058A00020606060A060E0602061E8B2214656F7A9
:1058B000D0FA6D1C1834EDE7F8BDC046E041FD0795
:1058C0004472FC070071FC073C77FC07704700003E
:1058D000F0B58BB01F2109041B4A13688B430121CB
:1058E0004C041B191360CB04184A14689C431460C1
:1058F000184C194D194E4661194E1A4F1A4BC36177
:1059000006624462124B8362C562184B07604360B3
:1059100088041168814311600020282803D001A960
:105920000854401CF9E712480068403001A92822B9
:1059300058F7BCFB00F022F8FEF772FFB849C885A3
:10594000FCF7BAF90BB0F0BD740000400002004053
:105950007959FC077559FC07255AFC07355AFC078D
:105960004D23FC07195AFC071B5AFC07CD58FC07AE
:105970004C76FD0700207047704700000B480C492B
:1059800001600C480C4901800C48418802220A43FE
:1059900004218A4342800A4963220A80A0494A8D31
:1059A000094B1A80898D01807047C04680000040F5
:1059B0004C0554076A280050EBE600000026005012
:1059C000062C00501C48FD071028005080B51F20F1
:1059D000000401218A07536F834348041818506755
:1059E00010680723984310600A4802880A4302217E
:1059F0008A430280028808210A430280428C920571
:105A000004D5028B0A4370218A430283FFF7B6FF55
:105A100080BDC04608000050704740087038C0B2D2
:105A2000704700000248016807220A43026070477D
:105A30003000004000207047F0B587B001267002AA
:105A40000590300204904D4D0096284608380768AE
:105A5000002F00D18EE0380603D58020286047F75C
:105A600072F9B80703D50220286043F732F93807E6
:105A700007D508202860002043F7EBF80420F149FF
:105A800048720498074204D004982860012043F724
:105A9000E0F80598074203D00598286047F7BCF95D
:105AA000780603D54020286043F7CEF8F80603D5E2
:105AB0001020286041F703FD78070ED4F80706D0C0
:105AC0002E6056F709FD47F73EF9DE484672B806E4
:105AD000BBD52020286000BEB7E7042028602949F4
:105AE0000888B043088056F7DBFC3CF7E5FD00244E
:105AF000D44844722448008805990842DED0D14831
:105B0000807A0028DAD1CF4886721D480088C00705
:105B1000D4D11E48069006A80390FCF77DFC142003
:105B2000FCF7C8F9164A108813490840059E40360C
:105B300030431080FCF75EFC029002200190FCF7DD
:105B4000B9F903988470FCF767FC0D4908880A4A84
:105B500010403043009E0880FCF74CFC08490C8044
:105B60000299401805992C318842A7D9B548019966
:105B70008172A3E707B0F0BD3FFC000018000040B1
:105B800000150050083300502A00005001000101A8
:105B900080B5AC48806B573801D8002006E081B250
:105BA000C90B401800B241103D204843C10700D046
:105BB0001F3080B20349884200D8084656F79AFC45
:105BC00080BDC046E204000067490A8902231343EE
:105BD000012293430B810B88DB0501D5030C8B80DD
:105BE0001302488008888004FCD5CA8008881842BF
:105BF00001D1002201E088880204488810437047E0
:105C000080B59048C1788078FCF7BAFA80BDC0466C
:105C100080B58C48C1788078FCF7D0FA80BDC0464A
:105C20001C48FD07F8B504461C4E3078002800D00B
:105C3000F8BD00F039F80028FAD10025284600F018
:105C400083F8FFF7E5FF9F20154FB8472846B84770
:105C50000006070A284612498847000280B2C71981
:105C600028460F498847C0B23D18FFF7C9FF002DED
:105C7000DED0EF20C2430B4811460C31D8D0821839
:105C8000F423D25895420A46F7D14018E430014631
:105C90002CC92CC600782070F8BDC0460078FC07DF
:105CA000C95BFC07346AFC0780B500F006F80121E7
:105CB000014048420D21884380BD80B5012000F09D
:105CC00043F80520000200F053F880B280BD80B593
:105CD000FFF79EFFFFF794FF002000F035F8AB20A0
:105CE00000F046F880BD0000B0B50025074C611CEF
:105CF000A94205D06D1CFFF7E0FFC007F7D1691E70
:105D00000020A14200D9C043B0BDC0467F841E0020
:105D100010B5FFF7C9FF0446002812D10024204621
:105D200000F012F8062000F023F8FFF7DDFF00284E
:105D300001D0FF2405E0FFF7C0FF800701D40B204E
:105D4000C44360B210BD000010B507490A880123A2
:105D50009A430A800A88054C1440C00120430880F9
:105D600008881843088010BD001200507FFE000014
:105D700010B50446FFF74CFF2046FFF725FF044609
:105D8000FFF73EFF204610BDF8B50C46054600283B
:105D900000D1256828780027002814D00C4928460F
:105DA000FCF79EF82E18285C00280BD008493046D6
:105DB000FCF7A6F83518305C002805D000202870C4
:105DC0006D1C01E035463E4625603046F8BDC046B4
:105DD0007276FC07E0B500690022428101AB1A70BF
:105DE000C0880C3080B201214AF727F9002800D082
:105DF00000BE8CBD704780B5016900220261084673
:105E000055F743FE80BD000010B50C4600F068FA5F
:105E1000002814D1A078002811D06068094988654D
:105E2000087D01461239022909D3801E012803D8B2
:105E3000002000F0D5FC02E0082000F0E3FC002088
:105E400010BDC0461C48FD07F0B58DB01F4603923B
:105E50000E4605460F204001032155F79BFD0446E1
:105E60000496308820800595A88A60801E200297BD
:105E7000384080302071A01DC6A1102258F716F9B5
:105E8000C8482083074620461A301626314658F760
:105E900026F94020C449215220464030090C418057
:105EA0000D460A9120463030078304278782BF4879
:105EB000E087BF48A087BF486087BF482087BF48AA
:105EC000E086BF48A086BF486086BF48208620463F
:105ED0004A30314658F703F97020B3492152602007
:105EE000BA49215220467030458020466030AD4D81
:105EF00005838782B649C181B6498181B64941810E
:105F0000B6490181B649C180B6498180B649418010
:105F100020467A30314658F7E2F89020B3492152B2
:105F200020469030B2490A0C0892428201820583D1
:105F30008782B049C181B0498181B0494181B0496E
